:020000040800F2
:1000000000500020453300080D2D00080F2D00087A
:10001000112D0008132D0008152D00080000000008
:10002000000000000000000000000000172D000884
:10003000192D0008000000001B2D00081D2D0008D0
:100040008D3300088D3300088D3300088D33000890
:100050008D3300088D3300088D3300088D33000880
:100060008D3300088D3300088D330008252D0008DE
:100070008D3300088D3300088D3300088D33000860
:100080008D3300088D3300088D3300088D33000850
:100090008D3300088D3300088D3300088D33000840
:1000A0008D3300088D3300088D3300088D33000830
:1000B000352D00088D3300088D3300088D3300087E
:1000C0008D3300088D3300088D3300088D33000810
:1000D0008D330008452D0008552D00088D3300088C
:1000E0003D3000088D3300088D330008000000000B
:1000F0000000000000000000000000000000000000
:0C01000000000000000000005FF808F1A3
:1001100010B5054C237833B9044B13B10448AFF341
:1001200000800123237010BDDC01002000000000CE
:100130006C54000808B5034B1BB103490348AFF3E7
:10014000008008BD00000000E00100206C540008A1
:1001500081F0004102E000BF83F0004330B54FEA78
:1001600041044FEA430594EA050F08BF90EA020FE5
:100170001FBF54EA000C55EA020C7FEA645C7FEA78
:10018000655C00F0E2804FEA5454D4EB5555B8BF9B
:100190006D420CDD2C4480EA020281EA030382EA0C
:1001A000000083EA010180EA020281EA0303362D9E
:1001B00088BF30BD11F0004F4FEA01314FF4801C71
:1001C0004CEA113102D0404261EB410113F0004F83
:1001D0004FEA03334CEA133302D0524263EB43033A
:1001E00094EA050F00F0A780A4F10104D5F1200ED8
:1001F0000DDB02FA0EFC22FA05F2801841F1000133
:1002000003FA0EF2801843FA05F359410EE0A5F106
:1002100020050EF1200E012A03FA0EFC28BF4CF037
:10022000020C43FA05F3C01851EBE37101F00045ED
:1002300007D54FF0000EDCF1000C7EEB00006EEBFA
:100240000101B1F5801F1BD3B1F5001F0CD3490884
:100250005FEA30004FEA3C0C04F101044FEA4452DB
:1002600012F5800F80F09A80BCF1004F08BF5FEA62
:10027000500C50F1000041EB045141EA050130BD42
:100280005FEA4C0C404141EB010111F4801FA4F1E5
:100290000104E9D191F0000F04BF01460020B1FA3A
:1002A00081F308BF2033A3F10B03B3F120020CDA72
:1002B0000C3208DD02F1140CC2F10C0201FA0CF050
:1002C00021FA02F10CE002F11402D8BFC2F1200CB5
:1002D00001FA02F120FA0CFCDCBF41EA0C0190406B
:1002E000E41AA2BF01EB0451294330BD6FEA0404B4
:1002F0001F3C1CDA0C340EDC04F11404C4F120029F
:1003000020FA04F001FA02F340EA030021FA04F3B0
:1003100045EA030130BDC4F10C04C4F1200220FA07
:1003200002F001FA04F340EA0300294630BD21FA45
:1003300004F0294630BD94F0000F83F4801306BF0B
:1003400081F480110134013D4EE77FEA645C18BFFF
:100350007FEA655C29D094EA050F08BF90EA020F96
:1003600005D054EA000C04BF1946104630BD91EA8E
:10037000030F1EBF0021002030BD5FEA545C05D191
:100380004000494128BF41F0004130BD14F58004D0
:100390003CBF01F5801130BD01F0004545F0FE4144
:1003A00041F470014FF0000030BD7FEA645C1ABF79
:1003B000194610467FEA655C1CBF0B46024650EAB0
:1003C000013406BF52EA033591EA030F41F40021DC
:1003D00030BD00BF90F0000F04BF0021704730B562
:1003E0004FF4806404F132044FF000054FF0000137
:1003F00050E700BF90F0000F04BF0021704730B5F8
:100400004FF4806404F1320410F0004548BF4042CC
:100410004FF000013EE700BF42004FEAE2014FEA21
:1004200031014FEA02701FBF12F07F4393F07F4FFC
:1004300081F06051704732F07F4208BF704793F0FF
:100440007F4F04BF41F40021704730B54FF4607412
:1004500001F0004521F000411CE700BF50EA010215
:1004600008BF704730B54FF000050AE050EA0102BE
:1004700008BF704730B511F0004502D5404261EB2E
:1004800041014FF4806404F132045FEA915C3FF46F
:10049000D8AE4FF003025FEADC0C18BF03325FEA0C
:1004A000DC0C18BF033202EBDC02C2F1200300FABD
:1004B00003FC20FA02F001FA03FE40EA0E0021FAE2
:1004C00002F11444BDE600BF80F0004002E000BF2E
:1004D00081F0004142001FBF5FEA410392EA030F2F
:1004E0007FEA226C7FEA236C6AD04FEA1262D2EB79
:1004F0001363C1BFD218414048404140B8BF5B427E
:10050000192B88BF704710F0004F40F4000020F016
:100510007F4018BF404211F0004F41F4000121F02C
:100520007F4118BF494292EA030F3FD0A2F1010276
:1005300041FA03FC10EB0C00C3F1200301FA03F1B4
:1005400000F0004302D5494260EB4000B0F5000FD7
:1005500013D3B0F1807F06D340084FEA310102F196
:100560000102FE2A51D2B1F1004F40EBC25008BF48
:1005700020F0010040EA03007047490040EB000012
:1005800010F4000FA2F10102EDD1B0FA80FCACF141
:10059000080CB2EB0C0200FA0CF0AABF00EBC25040
:1005A00052421843BCBFD0401843704792F0000F2E
:1005B00081F4000106BF80F400000132013BB5E781
:1005C0004FEA41037FEA226C18BF7FEA236C21D0F7
:1005D00092EA030F04D092F0000F08BF084670475C
:1005E00090EA010F1CBF0020704712F07F4F04D12A
:1005F000400028BF40F00040704712F100723CBF3D
:1006000000F50000704700F0004343F0FE4040F466
:10061000000070477FEA226216BF08467FEA236324
:100620000146420206BF5FEA412390EA010F40F40F
:10063000800070474FF0000304E000BF10F000435B
:1006400048BF40425FEA000C08BF704743F0964342
:1006500001464FF000001CE050EA010208BF70475D
:100660004FF000030AE000BF50EA010208BF7047E4
:1006700011F0004302D5404261EB41015FEA010CF9
:1006800002BF84460146002043F0B64308BFA3F1F1
:100690008053A3F50003BCFA8CF2083AA3EBC253D3
:1006A00010DB01FA02FC634400FA02FCC2F12002F2
:1006B000BCF1004F20FA02F243EB020008BF20F029
:1006C0000100704702F1200201FA02FCC2F120028F
:1006D00050EA4C0021FA02F243EB020008BF20EA84
:1006E000DC7070474FF0FF0C1CEAD0521EBF1CEAB2
:1006F000D15392EA0C0F93EA0C0F6FD01A4480EAA0
:10070000010C400218BF5FEA41211ED04FF0006388
:1007100043EA501043EA5111A0FB01310CF00040B4
:10072000B1F5000F3EBF490041EAD3715B0040EADA
:10073000010062F17F02FD2A1DD8B3F1004F40EBAA
:10074000C25008BF20F00100704790F0000F0CF07D
:10075000004C08BF49024CEA502040EA51207F3A41
:10076000C2BFD2F1FF0340EAC250704740F400001C
:100770004FF00003013A5DDC12F1190FDCBF00F00D
:1007800000407047C2F10002410021FA02F1C2F1BB
:10079000200200FA02FC5FEA310040F1000053EA57
:1007A0004C0308BF20EADC70704792F0000F00F0A5
:1007B000004C02BF400010F4000F013AF9D040EAAB
:1007C0000C0093F0000F01F0004C02BF490011F43F
:1007D000000F013BF9D041EA0C018FE70CEAD1533D
:1007E00092EA0C0F18BF93EA0C0F0AD030F0004CBD
:1007F00018BF31F0004CD8D180EA010000F0004071
:10080000704790F0000F17BF90F0004F084691F02E
:10081000000F91F0004F14D092EA0C0F01D1420268
:100820000FD193EA0C0F03D14B0218BF084608D131
:1008300080EA010000F0004040F0FE4040F400007B
:10084000704740F0FE4040F4400070474FF0FF0C0E
:100850001CEAD0521EBF1CEAD15392EA0C0F93EA55
:100860000C0F69D0A2EB030280EA010C49024FEAA7
:10087000402037D04FF0805343EA111143EA101360
:100880000CF000408B4238BF5B0042F17D024FF418
:10089000000C8B4224BF5B1A40EA0C00B3EB510FF3
:1008A00024BFA3EB510340EA5C00B3EB910F24BFDC
:1008B000A3EB910340EA9C00B3EBD10F24BFA3EB61
:1008C000D10340EADC001B0118BF5FEA1C1CE0D129
:1008D000FD2A3FF650AF8B4240EBC25008BF20F0DC
:1008E000010070470CF0004C4CEA50207F32C2BF30
:1008F000D2F1FF0340EAC250704740F400004FF0CD
:100900000003013A37E792F0000F00F0004C02BFFD
:10091000400010F4000F013AF9D040EA0C0093F0C7
:10092000000F01F0004C02BF490011F4000F013B21
:10093000F9D041EA0C0195E70CEAD15392EA0C0F89
:1009400008D142027FF47DAF93EA0C0F7FF470AFC1
:10095000084676E793EA0C0F04D14B023FF44CAF04
:1009600008466EE730F0004C18BF31F0004CCAD199
:1009700030F000427FF45CAF31F000437FF43CAFD5
:100980005FE700BF034613F8012B002AFBD1181ABA
:100990000138704770B54FF0FF0C4CF4E06C1CEA66
:1009A00011541DBF1CEA135594EA0C0F95EA0C0F65
:1009B00000F0DEF82C4481EA030621EA4C5123EAD8
:1009C0004C5350EA013518BF52EA033541F4801107
:1009D00043F4801338D0A0FB02CE4FF00005E1FBBA
:1009E00002E506F00042E0FB03E54FF00006E1FB04
:1009F00003569CF0000F18BF4EF0010EA4F1FF0447
:100A0000B6F5007F64F5407404D25FEA4E0E6D4186
:100A100046EB060642EAC62141EA55514FEAC52097
:100A200040EA5E504FEACE2EB4F1FD0C88BFBCF513
:100A3000E06F1ED8BEF1004F08BF5FEA500E50F1C4
:100A4000000041EB045170BD06F0004646EA01018A
:100A500040EA020081EA0301B4EB5C04C2BFD4EBBC
:100A60000C0541EA045170BD41F480114FF0000EB5
:100A7000013C00F3AB8014F1360FDEBF002001F023
:100A8000004170BDC4F10004203C35DA0C341BDC9D
:100A900004F11404C4F1200500FA05F320FA04F06F
:100AA00001FA05F240EA020001F0004221F00041A3
:100AB00010EBD37021FA04F642EB06015EEA430E16
:100AC00008BF20EAD37070BDC4F10C04C4F1200546
:100AD00000FA04F320FA05F001FA04F240EA0200F9
:100AE00001F0004110EBD37041F100015EEA430ECA
:100AF00008BF20EAD37070BDC4F1200500FA05F2EA
:100B00004EEA020E20FA04F301FA05F243EA020368
:100B100021FA04F001F0004121FA04F220EA020077
:100B200000EBD3705EEA430E08BF20EAD37070BDBD
:100B300094F0000F0FD101F00046400041EB01019D
:100B400011F4801F08BF013CF7D041EA060195F07F
:100B5000000F18BF704703F00046520043EB030339
:100B600013F4801F08BF013DF7D043EA0603704726
:100B700094EA0C0F0CEA135518BF95EA0C0F0CD031
:100B800050EA410618BF52EA4306D1D181EA030177
:100B900001F000414FF0000070BD50EA410606BF71
:100BA0001046194652EA430619D094EA0C0F02D1B6
:100BB00050EA013613D195EA0C0F05D152EA0336FB
:100BC0001CBF104619460AD181EA030101F0004119
:100BD00041F0FE4141F470014FF0000070BD41F062
:100BE000FE4141F4780170BD70B54FF0FF0C4CF43C
:100BF000E06C1CEA11541DBF1CEA135594EA0C0F5B
:100C000095EA0C0F00F0A7F8A4EB050481EA030EA7
:100C100052EA03354FEA013100F088804FEA03338E
:100C20004FF0805545EA131343EA12634FEA02225C
:100C300045EA111545EA10654FEA00260EF000411D
:100C40009D4208BF964244F1FD0404F5407402D26F
:100C50005B084FEA3202B61A65EB03055B084FEA00
:100C600032024FF480104FF4002CB6EB020E75EBFD
:100C7000030E22BFB61A754640EA0C005B084FEA25
:100C80003202B6EB020E75EB030E22BFB61A7546A2
:100C900040EA5C005B084FEA3202B6EB020E75EBED
:100CA000030E22BFB61A754640EA9C005B084FEA65
:100CB0003202B6EB020E75EB030E22BFB61A754672
:100CC00040EADC0055EA060E18D04FEA051545EA61
:100CD00016754FEA06164FEAC30343EA52734FEA0A
:100CE000C2025FEA1C1CC0D111F4801F0BD141EA83
:100CF00000014FF000004FF0004CB6E711F4801FE8
:100D000004BF01430020B4F1FD0C88BFBCF5E06FC7
:100D10003FF6AFAEB5EB030C04BFB6EB020C5FEAD7
:100D2000500C50F1000041EB045170BD0EF0004E2C
:100D30004EEA113114EB5C04C2BFD4EB0C0541EA5E
:100D4000045170BD41F480114FF0000E013C90E65B
:100D500045EA060E8DE60CEA135594EA0C0F08BF1F
:100D600095EA0C0F3FF43BAF94EA0C0F0AD150EA1E
:100D700001347FF434AF95EA0C0F7FF425AF1046B1
:100D800019462CE795EA0C0F06D152EA03353FF4D9
:100D9000FDAE1046194622E750EA410618BF52EA56
:100DA00043067FF4C5AE50EA41047FF40DAF52EA2A
:100DB00043057FF4EBAE12E74FF0FF3C06E000BFC7
:100DC0004FF0010C02E000BF4FF0010C4DF804CDD4
:100DD0004FEA410C7FEA6C5C4FEA430C18BF7FEA94
:100DE0006C5C1BD001B050EA410C0CBF52EA430CC2
:100DF00091EA030F02BF90EA020F0020704710F142
:100E0000000F91EA030F58BF994208BF90422CBFD0
:100E1000D8176FEAE37040F0010070474FEA410CC9
:100E20007FEA6C5C02D150EA013C07D14FEA430CE7
:100E30007FEA6C5CD6D152EA033CD3D05DF8040B58
:100E4000704700BF8446104662468C46194663468A
:100E500000E000BF01B5FFF7B7FF002848BF10F161
:100E6000000F01BD4DF808EDFFF7F4FF0CBF0120A6
:100E700000205DF808FB00BF4DF808EDFFF7EAFF22
:100E800034BF012000205DF808FB00BF4DF808EDDD
:100E9000FFF7E0FF94BF012000205DF808FB00BFD2
:100EA0004DF808EDFFF7CEFF94BF012000205DF85C
:100EB00008FB00BF4DF808EDFFF7C4FF34BF012069
:100EC00000205DF808FB00BF4FEA410C7FEA6C5C34
:100ED00002D150EA013C0AD14FEA430C7FEA6C5C34
:100EE00002D152EA033C02D14FF0000070474FF0AC
:100EF000010070474FEA410212F5001215D211D5D8
:100F00006FF47873B3EB625212D94FEAC12343F006
:100F1000004343EA505311F0004F23FA02F018BF88
:100F2000404270474FF00000704750EA013005D151
:100F300011F0004008BF6FF0004070474FF0000014
:100F4000704700BF10B504460E4B18784FF47A7303
:100F5000B3FBF0F30C4A1068B0FBF3F000F0EEFACC
:100F600068B90F2C01D901200AE0002221464FF078
:100F7000FF3000F0A1FA034B5C60002000E001208C
:100F800010BD00BF000000200800002008B5074A7F
:100F9000136843F010031360032000F07BFA002075
:100FA000FFF7D0FF01F090FE002008BD00200240B6
:100FB000034A1168034B1B780B441360704700BF52
:100FC0001002002000000020014B1868704700BF8D
:100FD00010020020704708B5436A9A6A12F0500F59
:100FE00003D01B6A1B6B984708BD9A6A42F40072D3
:100FF0009A621A68926802F46022B2F5602F03D0F8
:101000001846FFF7E7FFEFE71A7B002AF8D19A6A44
:1010100022F480729A629A6A12F4805FF0D19A6A1E
:1010200042F001029A62EBE7704708B5406AFFF7A9
:10103000FBFF08BD704708B5406A836A43F0400370
:101040008362C36A43F00403C362FFF7F3FF08BD82
:1010500030B482B00023019390F82430012B00F0CB
:101060008B800246012380F824304B68062B29D858
:101070000568686B03EB8303053B1F249C4020EA53
:1010800004000C6804FA03F303436B630B68092B39
:1010900038D91568E86803EB43031E3B07249C40DE
:1010A00020EA04008C6804FA03F30343EB600B6846
:1010B000103B012B34D90020002382F8243002B0E9
:1010C00030BC70470C2B0ED80568286B03EB8303EC
:1010D000233B1F249C4020EA04000C6804FA03F31D
:1010E00003432B63D2E70568E86A03EB8303413BC4
:1010F0001F249C4020EA04000C6804FA03F3034315
:10110000EB62C3E71568286903EB430307249C409F
:1011100020EA04008C6804FA03F303432B61C6E75A
:1011200013681648834205D0936A43F02003936204
:101130000120C1E7986810F4000F1BD1986840F4B3
:10114000000098600B68102B01D00020B4E70C4B16
:101150001B680C49A1FB03139B0C03EB8303590091
:10116000019102E0019B013B0193019B002BF9D10E
:101170000020A1E700209FE70220A0E70024014013
:101180000800002083DE1B4330B583B000230193A9
:1011900003689A6812F0010F2ED19A6842F001029A
:1011A0009A60174B1B68174AA2FB03239B0C019301
:1011B00002E0019B013B0193019B002BF9D1044606
:1011C000FFF702FF054623689B6813F0010F11D15A
:1011D000FFF7FAFE401B0228F5D9A36A43F010037B
:1011E000A362E36A43F00103E362002384F824303E
:1011F000012002E0002000E0002003B030BD00BF6D
:101200000800002083DE1B43F8B50468454DAC425E
:101210005BD0454B9C4258D090F82440012C7ED0A6
:1012200016460D460446012380F82430FFF7ACFF34
:10123000074600286ED1A36A23F4706323F00103EC
:1012400043F48073A3622268374B9A4244D0A36A66
:1012500023F48013A362536813F4806F05D0A36A4C
:1012600023F4405343F48053A362A36A13F4805FD2
:1012700048D0E36A23F00603E362002384F82430B5
:10128000236A2A4A9A62236A294ADA62236A294A25
:101290001A6323686FF002021A602268936843F4AD
:1012A00080739360216833462A464C31206A00F0EF
:1012B000A7F92268936803F46023B3F5602F24D064
:1012C000936843F48013936027E0164B5B6813F434
:1012D000702FA1D0012720E0A3F580635B6813F491
:1012E000702FB4D0A36A43F48013A3620D4B5B68E4
:1012F00013F4806FB9D0A36A23F4405343F48053AE
:10130000A362B2E70023E362B7E7936843F4A00364
:10131000936002E0002384F824303846F8BD0227A9
:10132000FBE700BF0024014000280140D70F000860
:101330002B1000083710000838B503689A6812F0BF
:10134000010F01D1002038BD04469A6822F0010245
:101350009A60FFF739FE054623689B6813F0010F7A
:101360000ED0FFF731FE401B0228F5D9A36A43F0E7
:101370001003A362E36A43F00103E3620120E2E7A2
:101380000020E0E700287FD038B50446836A002BB0
:1013900033D02046FFF7D0FFA36A13F010036DD1BE
:1013A00000286BD1A26A22F4885222F0020242F095
:1013B0000202A2626268E1690A43257B42EA4502B1
:1013C000A168B1F5807F21D001291CD0217D0129A0
:1013D0001FD02568696821F469410B436B6021685F
:1013E0008D682A4B2B4013438B60A368B3F5807F35
:1013F00020D0012B1ED000211FE0C36280F82430D2
:1014000001F024FBC5E74FF48073DFE74FF48073EE
:10141000DCE735B9A169013943EA413343F400639C
:10142000D7E7A16A41F02001A162E16A41F0010120
:10143000E162CEE72369013B19052568EB6A23F4D5
:1014400070030B43EB6223689968114B0B409A427F
:101450000BD0A36A23F0120343F01003A362E36AE4
:1014600043F00103E36201200DE00023E362A36A7D
:1014700023F0030343F00103A36204E0A36A43F0F3
:101480001003A362012038BD01207047FDF7E1FF82
:10149000FE0E1FFF074AD36823F4E0631B041B0CF6
:1014A000000200F4E060184340F0BF6040F40030F8
:1014B000D060704700ED00E030B4174BDB68C3F339
:1014C0000223C3F10704042C28BF04241D1D062D8C
:1014D00018D9033B4FF0FF3505FA04F421EA040163
:1014E000994005FA03F322EA0303194300280BDBB2
:1014F0000901C9B200F1604000F5614080F80013B5
:1015000030BC70470023E5E700F00F000901C9B2C5
:10151000024B1954F4E700BF00ED00E014ED00E0C9
:10152000002807DB00F01F02400901239340024A14
:1015300042F82030704700BF00E100E00138B0F110
:10154000807F0AD2064B5860064AF02182F82310A9
:101550000020986007221A6070470120704700BF82
:1015600010E000E000ED00E070B4066CC56B0124F3
:10157000B4406C60046863604368102B05D0036856
:1015800099600368DA6070BC704703689A6003680A
:10159000D960F8E760B310B402460168154B0B44FC
:1015A0001548A0FB03031B099B001364134BD36373
:1015B000022382F82130086820F47F5020F03000A8
:1015C000536894682343D4682343146923435469BC
:1015D000234394692343D469234303430B600020CE
:1015E0009063012382F8213082F8200010BC7047FC
:1015F00001207047F8FFFDBFCDCCCCCC00000240ED
:1016000038B590F82040012C32D0012480F82040D9
:1016100090F82140012C04D0002380F820300220D3
:1016200038BD0446022084F821000020A06325680C
:10163000286820F0010028602046FFF795FFE36A44
:101640005BB12268136843F00E03136022681368CD
:1016500043F0010313600020E2E72268136823F0DF
:10166000040313602268136843F00A031360EDE774
:101670000220D5E708B590F82130022B03D00423CF
:101680008363012008BD0268136823F00E03136012
:101690000268136823F0010313600368194A934238
:1016A00014D0143293421FD0143293421ED01432FD
:1016B00093421ED0143293421ED01432934202D071
:1016C0004FF0807203E04FF4801200E001220E4BD5
:1016D0005A60012380F82130002380F82030436BCA
:1016E0006BB198470020CDE71022F0E74FF48072ED
:1016F000EDE74FF48052EAE74FF48032E7E700204D
:10170000C0E700BF080002400000024038B5C36BCC
:101710001A6804682568016C04238B40134235D095
:1017200015F0040F32D0236813F0200F03D1236883
:1017300023F0040323600368434A934214D0143215
:10174000934218D01432934217D01432934217D0D8
:101750001432934217D01432934202D04FF0806279
:1017600003E04FF4800200E00422384B5A60C36A61
:1017700003B1984738BD4022F7E74FF48062F4E7A1
:101780004FF48042F1E74FF48022EEE702238B40D2
:1017900013423CD015F0020F39D0236813F0200F0C
:1017A00006D1236823F00A032360012380F8213047
:1017B0000368254A934214D0143293421CD0143249
:1017C00093421BD0143293421BD0143293421BD04D
:1017D0001432934202D04FF0007203E04FF4001233
:1017E00000E00222194B5A60002380F82030836AFF
:1017F000002BBFD09847BDE72022F3E74FF40072DB
:10180000F0E74FF40052EDE74FF40032EAE7082327
:1018100003FA01F11142ADD015F0080FAAD02368E8
:1018200023F00E032360026CC16B012303FA02F262
:101830004A60836380F82130002380F82030036BF6
:10184000002B97D0984795E708000240000002401F
:10185000F0B482B000263246A2E0002D5AD0012D0D
:1018600000D1CE68FF2B69D88446FF2B69D895003C
:10187000DCF800400F27AF4024EA070406FA05F51C
:101880002C43CCF800404C6814F0805F00F0878057
:101890005F4CA56945F00105A561A46904F0010448
:1018A0000194019C9508AF1C5A4C54F8274002F053
:1018B0000307BF004FF00F0C0CFA07FC24EA0C0CD6
:1018C000554CA04243D004F58064A04200F08180D2
:1018D00004F58064A0427ED004F58064A04234D038
:1018E000042435E04D4FBD4214D00BD94C4FBD42BE
:1018F00010D007F58037BD420CD0A7F58017BD4248
:10190000B0D107E0A7F58017BD4203D007F58037B7
:10191000BD42A7D18D687DB1012D08D04461082654
:10192000A0E7CE6808369DE7CE680C369AE70461DA
:10193000082697E7002695E7042693E700F1040CB4
:1019400093E7A2F10805AD0092E7032400E000242C
:10195000BC4044EA0C0402352E4F47F825404C6841
:1019600014F4803F39D02F4D2C681C432C604C68F8
:1019700014F4003F37D02B4D6C681C436C604C68EE
:1019800014F4801F35D0274DAC681C43AC604C6804
:1019900014F4001F33D0234DEC682343EB60013275
:1019A0000B6833FA02F430D00124944023409C4267
:1019B000F5D14D68122DB7D094D8022DB1D07FF655
:1019C0004CAF032DB6D0112D7FF44CAFCE6804364A
:1019D00048E70124BCE70224BAE7124D2C6824EA48
:1019E00003042C60C3E70F4D6C6824EA03046C60A9
:1019F000C5E70C4DAC6824EA0304AC60C7E7094DA9
:101A0000EC6824EA0303EB60C9E702B0F0BC70475E
:101A100000100240000001400008014000002110B9
:101A2000000031100004014012B90904016170473F
:101A300001617047C3680B4201D101617047416188
:101A40007047000008B5054B5B69034200D108BD33
:101A5000024B586101F0F8FAF9E700BF00040140B9
:101A600082B0084B1B68084AA2FB03235B0A00FBF9
:101A700003F0019000BF019B5A1E0192002BF9D187
:101A800002B0704708000020D34D6210002800F01B
:101A9000F58170B582B00446036813F0010F2CD0B5
:101AA000AB4B5B6803F00C03042B1DD0A84B5B68A9
:101AB00003F00C03082B12D06368B3F5803F41D0CC
:101AC000002B55D103F1804303F504331A6822F447
:101AD00080321A601A6822F480221A6037E09C4B28
:101AE0005B6813F4803FE7D0994B1B6813F4003F09
:101AF00003D06368002B00F0C381236813F0020F4A
:101B000076D0934B5B6813F00C0F5FD0904B5B6803
:101B100003F00C03082B54D02369002B00F08A80BB
:101B20008C4B01221A60FFF74FFA0546884B1B6861
:101B300013F0020F75D1FFF747FA401B0228F5D9C1
:101B40000320A0E1824A136843F480331360636882
:101B500043B3FFF739FA05467D4B1B6813F4003F8A
:101B6000CBD1FFF731FA401B6428F5D903208AE175
:101B7000B3F5A02F09D0764B1A6822F480321A6090
:101B80001A6822F480221A60E1E703F18043A3F58A
:101B90003C331A6842F480221A601A6842F4803298
:101BA0001A60D4E7FFF710FA0546694B1B6813F477
:101BB000003FA2D0FFF708FA401B6428F5D90320A4
:101BC00061E1634B5B6813F4803FA5D1604B1B68F8
:101BD00013F0020F04D02369012B01D0012052E140
:101BE0005B4A136823F0F803616943EAC103136099
:101BF000236813F0080F32D0A369002B5BD0564B3B
:101C000001221A60FFF7E0F90546514B5B6A13F0B9
:101C1000020F21D1FFF7D8F9401B0228F5D9032084
:101C200031E14B4A136823F0F803616943EAC103C9
:101C30001360DDE7474B00221A60FFF7C5F9054640
:101C4000434B1B6813F0020FD2D0FFF7BDF9401BC6
:101C50000228F5D9032016E10120FFF701FF2368D0
:101C600013F0040F00F09880394BDB6913F0805FAC
:101C700033D1374BDA6942F08052DA61DB6903F025
:101C800080530193019B0125344B1B6813F4807F23
:101C900025D0E368012B36D0002B4CD103F18043D3
:101CA00003F504331A6A22F001021A621A6A22F05A
:101CB00004021A622CE0284B00221A60FFF784F914
:101CC0000546234B5B6A13F0020FC8D0FFF77CF97F
:101CD000401B0228F5D90320D5E00025D4E71F4A90
:101CE000136843F480731360FFF76EF906461B4BCD
:101CF0001B6813F4807FCCD1FFF766F9801B642842
:101D0000F5D90320BFE0124A136A43F001031362BE
:101D1000E3687BB3FFF758F906460D4B1B6A13F0D7
:101D2000020F38D1FFF750F9801B41F288339842F7
:101D3000F3D90320A7E0052B12D0054B1A6A22F035
:101D400001021A621A6A22F004021A62E0E700BF76
:101D500000100240000042428004424200700040F5
:101D60004C4B1A6A42F004021A621A6A42F00102EB
:101D70001A62CDE7FFF728F90646464B1B6A13F0B7
:101D8000020F08D0FFF720F9801B41F288339842F8
:101D9000F3D9032077E0E5B9E369002B72D03D4A1F
:101DA000526802F00C02082A56D0022B17D03A4B88
:101DB00000221A60FFF708F90446364B1B6813F03F
:101DC000007F47D0FFF700F9001B0228F5D9032058
:101DD00059E0304AD36923F08053D361DCE72E4BBE
:101DE00000221A60FFF7F0F805462A4B1B6813F033
:101DF000007F06D0FFF7E8F8401B0228F5D9032042
:101E000041E0236AB3F5803F1AD022494B6823F49E
:101E10007413226A606A024313434B601E4B012213
:101E20001A60FFF7D1F804461A4B1B6813F0007FC5
:101E30000ED1FFF7C9F8001B0228F5D9032022E0D4
:101E4000144A536823F40033A1680B435360DCE762
:101E5000002018E0002016E0012B16D00D4B5B6827
:101E600003F48031226A914201D001200BE003F497
:101E70007013626A93420AD0012004E00120704787
:101E8000012000E0002002B070BD0120FBE700202F
:101E9000F9E700BF001002406000424210B487B072
:101EA000164C94E80F000DF1180C0CE90F00238A72
:101EB000ADF80430124B5B6803F00C02082A1AD10B
:101EC000C3F38342624412F8102C13F4803F05D10F
:101ED0000C4800FB02F007B010BC7047084B5B6871
:101EE000C3F34043634413F8143C074800FB02F07B
:101EF000B0FBF3F0EFE70448EDE700BF88540008BB
:101F00000010024000093D0000127A00002800F095
:101F1000A38070B50446524B1B6803F007038B4245
:101F20000CD24F4A136823F007030B431360136866
:101F300003F007038B4201D0012070BD236813F02A
:101F4000020F17D013F0040F04D0464A536843F42D
:101F5000E0635360236813F0080F04D0414A5368CC
:101F600043F4605353603F4A536823F0F003A06882
:101F7000034353600D46236813F0010F31D06368AB
:101F8000012B20D0022B25D0364A126812F0020F06
:101F900064D034494A6822F0030213434B60FFF7D0
:101FA00013F806462F4B5B6803F00C036268B3EB33
:101FB000820F16D0FFF708F8801B41F28833984251
:101FC000F0D90320B9E7274A126812F4003FE0D1A4
:101FD0000120B2E7234A126812F0007FD9D1012014
:101FE000ABE71F4B1B6803F00703AB420CD91C4A3D
:101FF000136823F007032B431360136803F00703F0
:10200000AB4201D0012098E7236813F0040F06D0FB
:10201000144A536823F4E063E1680B435360236878
:1020200013F0080F07D00F4A536823F46053216957
:1020300043EAC1035360FFF731FF0A4B5B68C3F308
:102040000313094AD35CD840084B1860084B186842
:10205000FEF778FF002070E70120704701206CE751
:102060000020024000100240A05400080800002098
:1020700004000020014B1868704700BF08000020D2
:1020800008B5FFF7F7FF044B5B68C3F30223034A6D
:10209000D35CD84008BD00BF00100240B054000817
:1020A00008B5FFF7E7FF044B5B68C3F3C223034A9D
:1020B000D35CD84008BD00BF00100240B0540008F7
:1020C00070B582B00446036813F0010F34D03E4B64
:1020D000DB6913F0805F48D13B4BDA6942F08052F4
:1020E000DA61DB6903F080530193019B0125374BD3
:1020F0001B6813F4807F3AD0334B1B6A13F4407390
:1021000011D0626802F440729A420CD02E4A136ACF
:1021100023F440702E4901260E6000260E601062E6
:1021200013F0010F37D1284A136A23F44073616812
:102130000B431362002D3FD1236813F0020F06D02A
:10214000214A536823F44043A1680B43536023683A
:1021500013F0100F35D01C4A536823F48003E16854
:102160000B435360002002B070BD0025BFE7174A43
:10217000136843F480731360FEF726FF0646134B83
:102180001B6813F4807FB7D1FEF71EFF801B642805
:10219000F5D90320E7E7FEF717FF06460A4B1B6A4F
:1021A00013F0020FBFD1FEF70FFF801B41F28833FF
:1021B0009842F3D90320D6E7D36923F08053D36143
:1021C000BAE70020CFE700BF0010024000700040D7
:1021D0004004424210B4036A046A24F00104046219
:1021E000846924F0F00444EA021223F00A030B434A
:1021F0008261036210BC704710B4036A23F01003BD
:1022000003628469036A24F4704444EA023223F0CE
:10221000A00343EA01138261036210BC7047836824
:1022200023F07003194341F0070181607047026891
:10223000D36843F00103D3600268936803F0070397
:10224000062B03D0136843F001031360002070478E
:10225000704770477047704710B5044603681A69A5
:1022600012F0020F11D0DA6812F0020F0DD06FF0E9
:1022700002021A610123037703689B6913F0030FBD
:1022800070D0FFF7E6FF0023237723681A6912F066
:10229000040F12D0DA6812F0040F0ED06FF00402AF
:1022A0001A610223237723689B6913F4407F5FD070
:1022B0002046FFF7CEFF0023237723681A6912F028
:1022C000080F12D0DA6812F0080F0ED06FF0080273
:1022D0001A61042323772368DB6913F0030F4ED0C0
:1022E0002046FFF7B6FF0023237723681A6912F010
:1022F000100F12D0DA6812F0100F0ED06FF010022B
:102300001A61082323772368DB6913F4407F3DD0EB
:102310002046FFF79EFF0023237723681A6912F0F7
:10232000010F03D0DA6812F0010F36D123681A6961
:1023300012F0800F03D0DA6812F0800F34D12368D6
:102340001A6912F0400F03D0DA6812F0400F32D150
:1023500023681A6912F0200F03D0DA6812F0200FF8
:1023600030D110BDFFF774FF2046FFF773FF8AE7F7
:102370002046FFF76DFF2046FFF76CFF9BE72046E6
:10238000FFF766FF2046FFF765FFACE72046FFF743
:102390005FFF2046FFF75EFFBDE76FF001021A61A5
:1023A000204600F0DFFCC1E76FF080021A61204692
:1023B00000F0FFF8C3E76FF040021A612046FFF714
:1023C0004AFFC5E76FF020021A61204600F0F0F8DE
:1023D000C7E7000003681B4A90420AD0B0F1804F63
:1023E00007D0A2F59432904203D002F58062904269
:1023F00003D123F070034A681343124A90420AD073
:10240000B0F1804F07D0A2F59432904203D002F58C
:102410008062904203D123F44073CA68134323F0CF
:1024200080034A69134303608B68C3620B6883624D
:10243000044B984202D00123436170470B69036348
:10244000F9E700BF002C0140A8B110B5044690F890
:102450003D305BB1022384F83D30211D2068FFF739
:10246000B9FF012384F83D30002010BD80F83C30D6
:1024700000F0A6FEEEE70120704710B4846824F453
:102480007F4442EA03230B432343836010BC70471D
:1024900090F83C30012B66D010B50446012380F83B
:1024A0003C30022380F83D300268936823F47F4378
:1024B00023F0770393600B68402B4AD013D9602B2D
:1024C0003DD01ED9702B28D0B3F5005F30D1CB683A
:1024D0004A6889680068FFF7D0FF2268936843F470
:1024E0008043936024E0102B06D004D9202B03D026
:1024F000302B01D01CE0DBB919462068FFF78FFEB6
:1025000016E0502B14D1CA6849680068FFF762FED4
:1025100050212068FFF783FE0AE0CB684A6889688B
:102520000068FFF7AAFF2268936843F0770393607F
:10253000012384F83D30002084F83C0010BDCA68B7
:1025400049680068FFF758FE60212068FFF767FEC2
:10255000EEE7CA6849680068FFF73CFE4021206842
:10256000FFF75DFEE4E70220704790F83C30012B56
:102570001CD070B4012680F83C60022380F83D3006
:1025800002685568936825F070050C682C4323F0A9
:1025900080054B682B4354600268936080F83D606F
:1025A000002380F83C30184670BC7047022070470A
:1025B000704770470268D36823F49073D360026851
:1025C000536923F001035361202380F83A307047A8
:1025D00090F83930DBB2212B2AD18368B3F5805FC4
:1025E00016D0036A5A1C02621A7803685A60C38CB8
:1025F000013B9BB2C384EBB90268D36823F080032C
:10260000D3600268D36843F04003D3600020704772
:10261000036A1B880268C3F30803536003691BB98C
:10262000036A02330362E2E7036A01330362DEE70F
:10263000022070470020704738B5044602681369CD
:1026400023F44053C1680B43136183680269134349
:1026500042691A430168CB6823F4B05323F00C039A
:102660001343CB600268536923F4407381690B43C1
:1026700053610268214B9A421FD0FFF701FD00EB26
:10268000800000EB800063689B00B0FBF3F01C4D02
:10269000A5FB00325109642202FB110213013233FF
:1026A000A5FB03235B0903F0F00202EB011203F028
:1026B0000F03216813448B6038BDFFF7F1FC00EB7A
:1026C000800000EB800063689B00B0FBF3F00C4DD2
:1026D000A5FB00325109642202FB110213013233BF
:1026E000A5FB03235B0903F0F00202EB011203F0E8
:1026F0000F03216813448B60DEE700BF0038014000
:102700001F85EB5158B310B5044690F839300BB320
:10271000242384F839302268D36823F40053D3602B
:102720002046FFF789FF2268136923F49043136161
:102730002268536923F02A0353612268D36843F463
:102740000053D3600020E063202384F8393084F8FC
:102750003A3010BD80F8383000F084FDD8E7012011
:10276000704790F83930DBB2202B16D1B9B1C2B125
:1027700090F83830012B16D001628284C284002385
:10278000C363212280F8392080F838300168CA6894
:1027900042F08002CA60184670470220704701204C
:1027A0007047012070470220704790F83A30DBB242
:1027B000202B20D109B312B390F83830012B20D050
:1027C00081628285C2850023C363222280F83A2079
:1027D00080F838300168CA6842F48072CA600168C3
:1027E0004A6942F001024A610168CA6842F0200267
:1027F000CA601846704702207047012070470120C8
:1028000070470220704708B50168CB6823F0400389
:10281000CB60202380F8393000F0BAFB002008BDDF
:1028200008B590F83A30DBB2222B45D18368B3F576
:10283000805F0ED0036903BB03685A68836A591C22
:1028400081621A70C38D013B9BB2C385F3B1002036
:1028500033E0826A036943B903685B68C3F3080322
:102860001380836A02338362ECE703685B68DBB240
:102870001380836A01338362E4E703685B68826ADA
:10288000511C816203F07F031370DBE70268D36899
:1028900023F02003D3600268D36823F48073D360ED
:1028A0000268536923F001035361202380F83A3012
:1028B00000F09EFA002000E0022008BD70470000F2
:1028C00010B5044602681368D168526913F00F000E
:1028D00005D113F0200F02D011F0200F53D10028A2
:1028E00067D012F0010202D111F4907F61D013F091
:1028F000010F06D011F4807F03D0E06B40F001009F
:10290000E06313F0040F04D01AB1E06B40F0020052
:10291000E06313F0020F04D01AB1E06B40F0040042
:10292000E06313F0080F04D01AB1E26B42F0080222
:10293000E263E26B002A48D013F0200F02D011F0BE
:10294000200F24D123685B6903F04003E26B12F08F
:10295000080F00D13BB32046FFF72CFE23685A69CD
:1029600012F0400F1BD05A6922F040025A61636B8B
:102970008BB11A4A5A63606BFEF77CFE28B3606B1A
:10298000436B984721E02046FFF74AFF1DE02046B1
:10299000FFF746FFD6E72046FFF790FF15E02046F9
:1029A000FFF78CFF11E02046FFF788FF0023E36369
:1029B0000BE013F0800F02D011F0800F06D113F05E
:1029C000400F02D011F0400F04D110BD2046FFF798
:1029D000FFFDFAE72046FFF716FFF6E7E1290008BA
:1029E00008B5406A0023C385C384FFF767FF08BDAD
:1029F00000B585B000230193029303931148124A56
:102A0000026083600122027303754FF46021C1618B
:102A100043600261FEF7B6FC68B90F2301930123FE
:102A200002930723039301A90648FEF711FB28B977
:102A300005B05DF804FB00F045F9EEE700F042F95F
:102A4000F6E700BF140200200024014030B587B033
:102A50000023029303930493059302681E4B9A424A
:102A600001D007B030BD044603F56C439A6942F4C7
:102A700000729A619A6902F400720092009A9A694F
:102A800042F010029A619B6903F010030193019BCD
:102A9000202502950323039302A91048FEF7D8FED0
:102AA0000F48104B03600023436083608023C360A2
:102AB0004FF4807303614FF48063436185614FF489
:102AC0000053C361FEF766FD18B9054B23625C62D3
:102AD000C7E700F0F7F8F8E70024014000100140D4
:102AE000440200200800024000B583B00A4B5A6936
:102AF00042F001025A615B6903F001030193019BFB
:102B0000002211460B20FEF7D7FC0B20FEF708FD34
:102B100003B05DF804FB00BF001002402DE9F04156
:102B200088B0002404940594069407942D4B9A6968
:102B300042F010029A619A6902F010020092009A23
:102B40009A6942F020029A619A6902F02002019289
:102B5000019A9A6942F004029A619A6902F00402A9
:102B60000292029A9A6942F008029A619B6903F004
:102B700008030393039BDFF8788022462021404618
:102B8000FEF752FF184D012210212846FEF74CFF98
:102B90004FF400530493154B0593069404A928465B
:102BA000FEF756FE2023049301270597069402267C
:102BB000079604A94046FEF74BFE102304930597A1
:102BC000069407960DEB03012846FEF741FE2246C8
:102BD00021462820FEF770FC2820FEF7A1FC08B053
:102BE000BDE8F081001002400010014000002110FB
:102BF0000008014030B595B0242200210BA800F058
:102C0000F1FB002405940694079408940994019418
:102C100002940394049402250A9501230E93102331
:102C20000F9311950AA8FEF731FF0F230593069520
:102C300007944FF4806308930994214605A8FFF791
:102C400065F90195039401A8FFF73AFA15B030BD74
:102C500008B5FEF79BF9FFF7CDFFFFF75FFFFFF722
:102C600043FFFFF7C5FE00F073FA00F0C7FA00F06B
:102C7000DFFA012210210C48FEF7D6FE0B48FFF7C1
:102C8000D6FA0B4B00221A7001220A490A48FFF7B4
:102C90008CFD074B1B78002BFBD00122074908480D
:102CA000FEF7B2FAFEE700BF00100140D403002097
:102CB00080030020D8020020540400202C030020B0
:102CC000140200207047000082B00E4B9A6942F057
:102CD00001029A619A6902F001020092009ADA698F
:102CE00042F08052DA61DB6903F080530193019B6B
:102CF000054A536823F0E06343F00073536002B069
:102D0000704700BF00100240000001407047FEE71E
:102D1000FEE7FEE7FEE770477047704708B5FEF72D
:102D200047F908BD08B50248FEF7F0FC08BD00BF32
:102D30004402002008B50248FFF78EFA08BD00BF24
:102D4000D403002008B50248FFF7BAFD08BD00BF54
:102D50001404002008B50248FFF7B2FD08BD00BF0B
:102D6000540400200368B3F1804F00D07047174B24
:102D70001B78012BFAD110B5154B1888FDF75EFCB6
:102D80001449FDF7AFFC144B1968FDF75FFDFDF723
:102D900043FB02460B461149114800F07BFF00231C
:102DA00003E0104A0021D15401330F4A12889A429D
:102DB000F7DC0D4B00221A80094C2046FDF7E2FD9E
:102DC00082B221460948FFF7CCFC10BD80030020E9
:102DD0002C0300200000C8429C540008B85400088E
:102DE000DC02002088020020FA01002014040020E8
:102DF00038B5544B1B78002B5ED10368524A93427E
:102E000008D0524A934231D0012251495148FFF72C
:102E1000CCFC38BD504B1A88013292B21A8014464D
:102E2000511E4E4B1B784E4843540A2B05D00122AD
:102E30004A494C48FFF7B9FCEBE7931EC35C0D2BE6
:102E4000F5D1494B1A80002306E04549CD5C47483F
:102E5000C5540020C85401339C42F6DC3E4B00218F
:102E6000198042493B48FFF77CFCE0E7404B1A8859
:102E7000013292B21A801446511E354B1B783D48E0
:102E800043540A2BC0D1931EC35C0D2BBCD13A4BCB
:102E90001A8000239C4207DD3649CD5C3748C55473
:102EA0000020C8540133F5E7314B00211980334924
:102EB0002C48FFF756FCA7E70268234B9A42A8D19B
:102EC000254A138801339BB21380591E234A127876
:102ED00023484254012B03D9023BC35C4D2B05D040
:102EE00001221E491F48FFF760FC92E73F2AF7D1F5
:102EF000234B1888FDF7A2FB2249FDF7F3FB224B79
:102F00001968FDF7A3FCFDF787FA02460B461F4937
:102F10001A4800F0BFFE002303E0114A0021D154FB
:102F200001330D4A12889A42F7DC0B4B00221A80BB
:102F3000124C2046FDF726FD82B221460948FFF7D4
:102F400010FCCDE780030020003801400044004021
:102F5000D802002054040020FA010020D9020020E9
:102F60008802002014040020FC01002084030020BB
:102F7000FE01002030030020F8010020DC020020C8
:102F80002C0300200000C8429C540008B8540008DC
:102F900008B5214B1B783BBB0368204A934204D001
:102FA0001F4A934224D1002316E001221D491E48E6
:102FB000FFF7FBFB00231D4A12889A4204DD1C4ADE
:102FC0000021D1540133F6E7184B00221A800FE09C
:102FD000184A0021D1540133174A12889A42F7DC6B
:102FE000154B00221A8003E002680C4B9A4200D075
:102FF00008BD01220B490C48FFF7D7FB002303E073
:103000000B4A0021D1540133084A12889A42F7DC56
:10301000064B00221A80EBE78003002000380140B5
:1030200000440040D902002014040020F8010020D0
:10303000DC02002084030020FC01002008B54FF4CE
:103040000050FEF7FFFC08BD08B5174B1B78012B9D
:1030500004D0154B01221A70002307E0124B002206
:103060001A70F9E7114A0021D1540133104A12882D
:103070009A42F7DC00230E4A138003E00D4A002138
:10308000D15401330C4A12889A42F7DC0A4B0022D1
:103090001A8010210948FEF7CDFC01220849094891
:1030A000FFF783FB08BD00BF80030020DC02002087
:1030B000F801002088020020FA01002000100140E1
:1030C000D90200201404002008B503460B4A1268F8
:1030D00042B10A4A106803446A46934206D8074A36
:1030E000136008BD054A06491160F2E700F050F987
:1030F0000C2303604FF0FF30F3E700BF0002002015
:10310000980400200F4B1A6842F001021A605968B7
:103110000D4A0A405A601A6822F0847222F4803202
:103120001A601A6822F480221A605A6822F4FE0299
:103130005A604FF41F029A60044B4FF000629A608D
:10314000704700BF001002400000FFF800ED00E0F3
:1031500000B587B000230293039304930593009373
:10316000019316484FF08042026041F63F72426080
:10317000836040F2E732C26003618361FFF764F964
:1031800098B906A94FF4805341F8103D0B48FFF75A
:103190007FF968B900230093019369460748FFF758
:1031A000E4F940B907B05DF804FBFFF78BFDE8E7F1
:1031B000FFF788FDEEE7FFF785FDF3E7D403002076
:1031C0000368B3F1804F00D0704700B583B003F5BA
:1031D0000433DA6942F00102DA61DB6903F00103CA
:1031E0000193019B002211461C20FEF765F91C206B
:1031F000FEF796F903B05DF804FB000008B50A4835
:103200000A4B03604FF41643436000238360C3609E
:1032100003610C2242618361C361FFF773FA00B955
:1032200008BDFFF74FFDFBE7140400200038014004
:1032300008B50A480A4B03604FF4E13343600023AA
:103240008360C36003610C2242618361C361FFF745
:1032500059FA00B908BDFFF735FDFBE7540400201B
:103260000044004030B589B00023049305930693D1
:10327000079303682F4A934204D02F4A934233D0D6
:1032800009B030BD2D4B9A6942F480429A619A6927
:1032900002F480420092009A9A6942F004029A6114
:1032A0009B6903F004030193019B4FF400730493A3
:1032B0000223059303230793214D04A92846FEF713
:1032C000C7FA4FF48063049300240594069404A97C
:1032D0002846FEF7BDFA224621462520FEF7ECF8E7
:1032E0002520FEF71DF9CBE7144BDA6942F40032D2
:1032F000DA61DA6902F400320292029A9A6942F0C3
:1033000004029A619B6903F004030393039B0C235B
:10331000049302230593079304A90948FEF798FA3A
:10332000002211462620FEF7C7F82620FEF7F8F8FF
:10333000A6E700BF003801400044004000100240F2
:1033400000080140002103E00B4B5B58435004315F
:103350000A480B4B42189A42F6D30A4A02E000236D
:1033600042F8043B084B9A42F9D3FFF7CBFE00F03A
:1033700015F8FFF76DFC7047385700080000002073
:10338000DC010020DC01002098040020FEE70000A2
:10339000014B1868704700BF0C00002070B5002575
:1033A0000C4E0D4CA41BA410A54209D102F05EF8EE
:1033B00000250A4E0A4CA41BA410A54205D170BDDD
:1033C00056F8253098470135EEE756F825309847EE
:1033D0000135F2E730570008305700083057000831
:1033E0003457000803460244934200D1704703F863
:1033F000011BF9E7002B2DE9F0471E46BBBF03F187
:1034000000431E4600232D2388B0149FDDE9121AC5
:1034100027F02007462F1446109D0B7004D0452F2F
:1034200000D10135022300E0032307AA049206AA73
:10343000CDE902A2CDE900352246334600F0D8FCA2
:10344000472F804602D1119BDB0726D5462F08EB7C
:10345000050911D198F80030302B0AD10022002341
:1034600020463146FDF7FEFC18B9C5F10105CAF842
:103470000050DAF8003099440022002320463146FB
:10348000FDF7F0FC38B93022079B4B4505D2591C9B
:1034900007911A70F8E7CDF81C904046079B159AE3
:1034A000A3EB0803136008B0BDE8F087F7B5002967
:1034B000B4BF2D232B230446B8BF4942092904F881
:1034C000022B437021DD0DF107031F460A2691FBF5
:1034D000F6F506FB1511092D01F1300103F8011C69
:1034E00003F1FF32294609DC3031023B02F8011CAE
:1034F000BB42224604D3101A03B0F0BD1346E6E7E0
:1035000013F8012B04F8012BF2E7302319448370E0
:10351000021DC170EFE700002DE9F04F91B00C469D
:103520001A9F93461E46054601F016FA0368184690
:103530000993FDF727FA00230E933B680A9007339F
:1035400023F0070303F1080294F81880D4F800A0D0
:103550003A60D3E90023C4E91223D4E9127929F0AF
:1035600000430B934FF0FF32A64B38460B99FDF703
:10357000ABFC68BB4FF0FF32A24B38460B99FDF70E
:1035800085FC28BB0022002338464946FDF774FC21
:1035900010B12D2384F843309B4F9C4BB8F1470F5B
:1035A00098BF1F4603234FF0000923612AF004034C
:1035B000236000965B460FAA2146284600F0E2F9F8
:1035C000013040F090804FF0FF3011B0BDE8F08F37
:1035D0003A464B4638464946FDF776FC10B18C4FCB
:1035E0008C4BDBE763684AF48062591C0DA80EA976
:1035F00040D1062363604FF0000C0DF13303CDE999
:10360000012363682260CDE9030800933A464B46E4
:10361000CDE9051C2846FFF7EDFE08F0DF03472B38
:10362000074609D10D9BD81C02DB6268934247DD37
:10363000A8F102085FFA88F8B8F1650F0D9924D84F
:103640000139424604F150000D91FFF72FFF0E9A09
:1036500081461318012A236102DC2268D10701D5B3
:10366000013323619DF83330002BA2D02D2384F841
:1036700043309EE7B8F1670F00F06E81B8F1470F55
:10368000B9D1002BB7D10123B4E7B8F1660F19D136
:10369000002963680CDD216113B92268D20702D5C5
:1036A00001330B4423610D9B4FF00009A365D9E75B
:1036B00013B92268D00701D50233F3E70123F1E7FC
:1036C0004FF06708DDE90D32934205DB2268236184
:1036D000D107E8D50133E5E7002BCCBF0123C3F1C7
:1036E00002031344DEE723685A0507D423693A46E8
:1036F00059462846B047013029D164E7B8F1650F33
:1037000040F2D780D4E9120100220023FDF7AAFB82
:1037100088B30123404A59462846B04701303FF458
:1037200052AFDDE90D239A4202DB2368D8070ED59C
:10373000DDE9092359462846B04701303FF443AF3D
:10374000002704F11A080E9B013BBB4209DC2368E9
:103750009F0700F1FD80E0680F9B9842B8BF1846B4
:1037600033E70123424659462846B04701303FF42B
:103770002AAF0137E7E70D9B002B2BDC0123264AFC
:1037800059462846B04701303FF41DAF0D9B23B981
:103790000E9B13B92368D907D9D5DDE9092359460A
:1037A0002846B04701303FF40EAF4FF0000804F157
:1037B0001A090D9B5B42434501DC0E9B97E70123F1
:1037C0004A4659462846B04701303FF4FCAE08F15E
:1037D0000108EEE70E9AA36D9A42A8BF1A46002A86
:1037E000904607DD134659463A462846B047013011
:1037F0003FF4E9AE04F11A034FF0000A28EAE87832
:103800000B9315E0FFFFEF7FD4540008D05400085D
:10381000DC540008D8540008E054000801230B9A37
:1038200059462846B04701303FF4CDAE0AF1010AAF
:10383000D4F85890A9EB08035345EFDCDDE90D23DC
:103840009A424F4414DB2368DA0711D40E9B0D997A
:10385000A3EB0902A3EB01099145A8BF9146B9F179
:10386000000F0DDC002729EAE97904F11A0818E0B5
:10387000DDE9092359462846B0470130E6D1A2E6E2
:103880004B463A4659462846B0470130EAD19AE6B7
:103890000123424659462846B04701303FF493AED3
:1038A0000137DDE90D239B1AA3EB0903BB42EFDCD3
:1038B0004DE70E9A012A01DCDB0738D501233A4691
:1038C00059462846B04701303FF47DAEDDE9092373
:1038D00059462846B047013007F101073FF473AE5F
:1038E000D4E912010E9B002203F1FF380023FDF7FB
:1038F000B9FAC0B943463A4659462846B04701305E
:103900000DD160E60123424659462846B0470130B2
:103910003FF459AE01370E9B013BBB42F2DC4B46F4
:1039200004F15002E4E6002704F11A08F3E701234A
:10393000E1E70123424659462846B04701303FF4AB
:1039400042AE0137E3680F9A9B1ABB42F1DC02E7F3
:10395000002704F11908F5E7002B3FF494AE4FF06F
:10396000000CCDE9051C0DF133012260CDE90308FF
:10397000CDE9012100933A464B462846FFF73AFD30
:1039800007464FE62DE9F04791461F468A680B69C6
:1039900006469342B8BF1346C9F8003091F8432059
:1039A0000C46DDF8208012B10133C9F800302368DD
:1039B000990642BFD9F800300233C9F800302568B3
:1039C00015F0060507D104F1190AE368D9F80020BB
:1039D0009B1AAB4229DC94F843302268003318BFAD
:1039E000012392062ED404F1430239463046C047E3
:1039F000013021D02368E56803F00603042B18BFCB
:103A00000025D9F800204FF0000908BFAD1AA368BF
:103A1000226908BF25EAE5759342C4BF9B1AED18D9
:103A20001A344D451AD1002008E001235246394688
:103A30003046C047013003D14FF0FF30BDE8F0877A
:103A40000135C2E73020E11881F843005A1C94F890
:103A500045102244023382F84310C4E70123224672
:103A600039463046C0470130E6D009F10109D8E7B0
:103A70002DE9F04301F1430C0C46097E85B06E2917
:103A80001746064698460C9A00F0B38022D8632960
:103A900036D00AD8002900F0B980582900F0838078
:103AA00004F1420584F8421032E0642901D069290A
:103AB000F6D120681368050603F104012AD51B68B6
:103AC0001160002B03DA2D225B4284F843206F48FB
:103AD0000A2239E0732900F09D8008D86F2920D090
:103AE0007029DDD1236843F02003236003E07529AA
:103AF00017D07829D4D17823654884F8453055E02B
:103B0000136804F14205191D1B68116084F84230E6
:103B100001238CE01B6810F0400F116018BF1BB22E
:103B2000CFE713682568181D1060280601D51B68AB
:103B300002E06806FBD51B886F2914BF0A22082201
:103B40005248002184F843106568002DA560C0F23A
:103B50009580216821F004012160002B3DD1002DCA
:103B600040F08E806546082A0BD12368DB0708D514
:103B7000236962689A42DEBF302305F8013C05F1F3
:103B8000FF35ACEB05032361CDF800803B4603AA6B
:103B900021463046FFF7F6FE01304DD14FF0FF30A1
:103BA00005B0BDE8F083394884F8451013682168F2
:103BB0001D1D1B6815600A060BD5CA0744BF41F0DE
:103BC000200121601BB9226822F02002226010220D
:103BD000B7E74D0648BF9BB2EFE76546B3FBF2F18E
:103BE00002FB1133C35C05F8013D0B460029F5D1FA
:103BF000B9E713682568181D6169106028061B68FD
:103C000001D5196002E06A06FBD5198000236546DC
:103C10002361B9E71368191D11601D6862680021EE
:103C2000284600F0AFFE08B1401B60606368236166
:103C3000002384F84330A7E723692A4639463046F3
:103C4000C0470130AAD023689B0713D4E068039BC8
:103C50009842B8BF1846A3E701234A463946304682
:103C6000C04701309AD00135E368039A9B1AAB42F2
:103C7000F2DCEBE7002504F11909F5E7002BACD1E4
:103C8000037804F1420584F842306CE7E2540008FE
:103C9000F35400080EB46FF0004100B59CB01DABAA
:103CA00002900690079104910848094953F8042BA3
:103CB0000591006802A9019301F068FA0022029BB5
:103CC0001A701CB05DF804EB03B070470C000020C4
:103CD0000802FFFF2DE9F74F03690C698046A342F4
:103CE000C0F28480013C01F1140700F1140657F87A
:103CF000245056F824000135B0FBF5F54FEA840C4A
:103D000006EB0C0307EB0C0901939DB34FF0000A7F
:103D10003846B646D34650F8042B93B205FB03A3AE
:103D2000120C4FEA134A05FB02A29BB2ABEB030352
:103D3000DEF800B04FEA124A1FFA8BFB5B441FFA11
:103D400082FBDEF800208145CBEB124202EB2342DE
:103D50009BB243EA02434FEA224B4EF8043BDAD2CD
:103D600056F80C3033B9019B043B9E421A4631D3BE
:103D7000C8F81040404601F033F8002826DB3046F2
:103D80004FF0000C013557F8041BD0F800E08BB25F
:103D9000ACEB03031FFA8EF213440A0CC2EB1E4273
:103DA00002EB23429BB243EA0243B9454FEA224C5D
:103DB00040F8043BE7D256F8242006EB84032AB9E6
:103DC000043B9E421A460BD3C8F81040284603B065
:103DD000BDE8F08F1268043B002AC9D1013CC4E75A
:103DE0001268043B002AEFD1013CEAE70020EEE72D
:103DF0002DE9F04F16461F46456A95B00446DDF89A
:103E00008480CDE902673DB9102000F0B3FD606207
:103E1000C0E901550560C560636A196851B15A6807
:103E2000012393404A608B60204600F0F8FD002299
:103E3000636A1A603B1EAFBF0023012223F00043D8
:103E40000393ACBFC8F80030C8F80020AE4BDDF8D3
:103E50000C8033EA08031BD142F20F73209A1360DF
:103E6000029B23B9C8F31300002800F04585229B6C
:103E700053B9A64B21E0A64B06930833229A136050
:103E8000069815B0BDE8F08FA04B06930333F5E715
:103E9000DDE902670022002330463946FCF7E2FFE5
:103EA000824660B10123209A1360229B002B00F010
:103EB0002085984B229A1360013B0693E0E712ABF2
:103EC000019313AB009332463B46204601F000F8C5
:103ED000C8F30A558346002D7DD0B046C7F31303BF
:103EE00043F07F5949F44019A5F2FF35CDF840A0C1
:103EF0000022894B40464946FCF72EF97CA3D3E9C2
:103F00000023FCF747FD7CA3D3E90023FCF726F947
:103F1000064628460F46FCF76DFA79A3D3E900233D
:103F2000FCF738FD02460B4630463946FCF716F9D9
:103F300006460F46FCF7DEFF00228246002330468D
:103F40003946FCF799FF48B15046FCF753FA324620
:103F50003B46FCF787FF08B90AF1FF3ABAF1160FA2
:103F60005AD8DDE902236D4901EBCA01D1E900010C
:103F7000FCF7A0FF002851D000230AF1FF3A0D936F
:103F8000129B5D1B6B1E079343BF0023C5F1010904
:103F900007934FF00009BAF1000F41DB079BCDF802
:103FA00030A053440793002308931E9B092B00F273
:103FB0008F80052BC4BF043B1E931E9BC8BF0025EA
:103FC000A3F10203D8BF0125032B00F28D80DFE8A7
:103FD00003F07B7D2F6FDDE912531D4405F2324063
:103FE000202813DDC0F14000029B08FA00F805F21A
:103FF000124023FA00F048EA0000FCF7EBF9012335
:104000008046A1F1F879013D109371E7029BC0F160
:10401000200003FA00F0F0E70123B0E70D90AFE7CE
:10402000CAF1000308930023A9EB0A090C93BCE72B
:10403000012309931F9B002B74DD984604930022F3
:10404000666A7260042202F11400984271686ED9A7
:10405000204600F0B0FC636A30601B68B8F10E0FB8
:10406000069300F2ED80002D00F0EA80DDE90223E6
:10407000BAF1000FCDE90E2377DD284A0AF00F03CD
:104080004FEA2A1602EBC303F006D3E90023CDE979
:104090000A2368D5DDE90E01214B0325D3E9082366
:1040A000FCF7A2FDCDE9020106F00F061C4F4FE020
:1040B000012309931F9B534403F1010804934346D2
:1040C000012BB8BF0123BAE70023B2E70023F0E7D2
:1040D0000125002309951E934FF0FF33002204931E
:1040E000984612231F92AAE701230993F4E700BF21
:1040F00061436F63A787D23FB3C8608B288AC63FEE
:10410000FB799F501344D33F0000F07F0D5500080A
:1041100004550008E15400080000F83F405500082D
:10412000185500080123049398461A46DAE701312E
:104130007160520087E7F10708D5DDE90A01D7E988
:104140000023FCF727FCCDE90A010135761008377A
:10415000002EF0D1DDE90A23DDE90201FCF744FD80
:10416000CDE902011BE00225A0E700F0A480DDE913
:104170000E01CAF10006A04B06F00F0203EBC203CA
:10418000D3E90023FCF706FC02250023CDE9020158
:104190009A4F3611002E40F08380002BE0D10D9B0A
:1041A000002B00F08A80DDE90223CDE90A23DDE956
:1041B0000A010022924BFCF75FFE00287DD0B8F187
:1041C000000F7AD0049B002B36DDDDE90A010022C6
:1041D0008C4BFCF7DFFBCDE90201049E0AF1FF37AF
:1041E00001352846FCF706F9DDE90223FCF7D2FB8E
:1041F0000022854BFBF7B2FFA1F15075CDE90A0112
:104200000B95002E5CD1DDE9020100227F4BFBF70C
:10421000A3FF0A9A2B46CDE90201FCF74BFE0028CA
:1042200040F08182DDE902010A9A05F10043FCF7C2
:1042300023FE002840F07582DDE90E23CDE902233C
:10424000139B002BC0F24B81BAF10E0F00F3478194
:10425000694B03EBCA03D3E90023CDE904231F9B79
:10426000002B80F2D780B8F1000F00F3D38040F02C
:104270005782DDE904010022644BFCF78BFBDDE98A
:104280000223FCF70DFE46464746002840F02D82EB
:10429000069B069A5D1C31230AF1010A137028E27D
:1042A000F20705D5D7E90023FCF774FB012301359C
:1042B000761008376EE7022571E75746464690E7C5
:1042C0004D4B03EBC60353E90201099B002B48D079
:1042D00002460B4600204E49FCF786FCDDE90A2326
:1042E000FBF73AFFCDE90A01069DDDE90201FCF783
:1042F00001FE1190FCF77EF802460B46DDE9020153
:10430000FBF72AFF119BCDE90201303305F8013B91
:10431000DDE90A23FCF7B0FD002863D1DDE90223C3
:1043200000203749FBF718FFDDE90A23FCF7A4FD5D
:10433000002840F0B580069BEB1A9E427FF77CAFC9
:10434000DDE90A0100222F4BFCF724FB0022CDE916
:104350000A01DDE902012B4BFCF71CFBCDE9020150
:10436000C3E7DDE90A23FCF715FB069BCDE90A014B
:104370009D191E46DDE90201FCF7BCFD1190FCF71A
:1043800039F802460B46DDE90201FBF7E5FE119B19
:10439000CDE90201303306F8013BAE424FF0000296
:1043A00024D1DDE90A011A4BFBF7D8FE02460B4681
:1043B000DDE90201FCF77EFD002871D1DDE90A2369
:1043C00000201349FBF7C8FE02460B46DDE9020157
:1043D000FCF752FD00283FF42FAF15F8013C6A1E90
:1043E000302B01D0BA464AE01546F6E7054BFCF7FC
:1043F000D1FACDE90201BDE7405500081855000883
:104400000000F03F0000244000001C400000144069
:104410000000E03F069DDDE90267DDE90423304648
:104420003946FCF7E1FBFCF765FD8146FBF7E2FF4F
:10443000DDE90423FCF7AEFA02460B463046394666
:10444000FBF78AFE09F1300605F8016B069E02466D
:10445000AE1BB0450B4635D1FBF780FEDDE90423EA
:1044600006460F46FCF726FDC8B9DDE904233046B1
:104470003946FCF7F7FC10B119F0010F0FD159467E
:10448000204600F0CCFA0023209A2B700AF1010399
:104490001360229B002B3FF4F3AC1D60F0E4574601
:1044A00015F8012C6B1E392A06D1069A9A4207D1BB
:1044B00030231370134601371A7801321A7091E7CE
:1044C0001D46EDE70022994BFCF764FA0022002319
:1044D00006460F46FCF7C6FC00289ED0CFE7099A97
:1044E000002A00F088801E9A012A6DDC109A002AAA
:1044F00066D003F233434D46089E079A01211A44C1
:1045000020469944079200F02AFB0746002D0BDD58
:10451000079B002B08DDAB42A8BF2B46079AA9EBEF
:104520000309ED1AD31A0793089BEBB1099B002BE3
:1045300065D08EB139463246204600F0AFFB5A4670
:1045400001460746204600F013FB59460A902046D4
:1045500000F065FA0A9B9B46089B9A1B04D05946BB
:10456000204600F09BFB83460121204600F0F7FA2D
:104570000C9B0646002B00F0C6811A4601462046D9
:1045800000F08CFB1E9B0646012B3EDC029B002BA1
:1045900037D1039BC3F31303002B34D1039B23F0C8
:1045A00000431B0D1B052BB1079B09F101090133CA
:1045B0000793012308930C9B002B28D101202EE0A8
:1045C000129BC3F1360396E7089B08F1FF36B3420E
:1045D000B7BF089B9E1BF21A0C9BBFBF08969B1887
:1045E0000C930026B8F1000FB9BFA9EB0805002312
:1045F0004D46434681E7089E4D46099F86E7089A47
:10460000ADE70023D6E7029BD4E700230893336984
:1046100006EB8303186900F054FAC0F12000079BF1
:10462000184410F01F0047D0C0F12003042B3BDDDD
:10463000079BC0F11C008144054403440793B9F172
:10464000000F05DD59464A46204600F075FB8346BB
:10465000079B002B05DD31461A46204600F06CFB17
:1046600006460D9B53B33146584600F0B9FB00286F
:1046700024DA002359460A22204600F0E7F9099B74
:104680000AF1FF3A8346002B00F0448100233946AB
:104690000A22204600F0DAF9049B0746002B4DDC85
:1046A0001E9B022B4ADD11E0C9D0079A1C331A4425
:1046B00099441D441346C1E70346F6E7B8F1000FDD
:1046C00036DC1E9B022B33DDCDF81080049B63B9D2
:1046D00031460522204600F0B9F901460646584603
:1046E00000F07EFB00283FF7D3AD1F9B069D6FEACD
:1046F000030A4FF000093146204600F090F9002FE0
:104700003FF4BDAEB9F1000F05D0B94503D049461D
:10471000204600F084F93946204600F080F9AEE6E4
:1047200000263746E1E7BA463746B1E500002440A7
:10473000099BCDF81080002B00F0F380002D05DDE3
:1047400039462A46204600F0F7FA0746089B002B18
:104750004CD07968204600F02EF905463A6907F1F9
:104760000C01023292000C3000F01AF901222946A5
:10477000204600F0E1FAB9460746069B0793029BE4
:1047800003F00103089331465846FFF7A3FA494660
:10479000054600F13008584600F022FB3A460290E8
:1047A0003146204600F036FBC368024603BB014693
:1047B0000990584600F014FB0346099A114620461A
:1047C000099300F02CF9099BA3B91E9A92B9089A93
:1047D00082B9B8F1390F29D0029B002B01DD05F118
:1047E0003108079B5D1C83F8008084E73846C2E7E8
:1047F0000123E3E7029A002A04DB23D11E9A0ABBB5
:10480000089AFAB9002BECDD59460122204600F047
:1048100093FA3146834600F0E3FA002803DCE0D146
:1048200018F0010FDDD0B8F1390FD8D1079B079AE6
:104830005D1C3923137015F8013C6A1E392B4DD0CD
:10484000013352E0079A002B02F1010506DDB8F1B1
:10485000390FEBD008F10108079BC4E7069B049AC7
:10486000EB1A934205F8018C21D0594600230A2205
:10487000204600F0EBF8B94583464FF000034FF0B7
:104880000A024946204605D100F0E0F88146074675
:10489000079578E700F0DAF83946814600230A22C6
:1048A000204600F0D3F80746F2E74FF000095946DA
:1048B0000122204600F040FA3146834600F090FA8B
:1048C0000028B8DC02D118F0010FB4D115F8013C72
:1048D0006A1E302B7FF40FAF1546F7E7069B934215
:1048E00005D13123069A0AF1010A137003E7154630
:1048F000A1E7174BFFF7E1BA229B002B7FF4BBAA7D
:10490000144BFFF7DABA1E9B012B7FF73FAE0C9BCF
:10491000089353E6049B002B03DC1E9B022B3FF7FE
:10492000D5AE069D31465846FFF7D4F9069B00F1F7
:10493000300805F8018B049AEB1A9A42B5DD594606
:1049400000230A22204600F081F88346EAE700BFF0
:10495000E054000804550008044B1B68186A044B17
:10496000002808BF1846F030704700BF0C00002038
:1049700070000020024B0146186800F053BB00BFD6
:104980000C00002010B5C9B202449042034601D188
:10499000002303E01C7801308C42F6D1184610BD8C
:1049A00010B5431E0A44914200D110BD11F8014BCD
:1049B00003F8014FF7E770B5456A04460E463DB966
:1049C0001020FFF7D7FF6062C0E901550560C560A0
:1049D000656AEB6883B1636ADB6853F82600B8B98F
:1049E000012101FA06F56A1D9200204600F0BFFA87
:1049F00060B1C0E901650EE021220421204600F0EB
:104A0000B6FA636AE860DB68002BE4D1002070BD71
:104A1000026843F826200023C0E90333F7E770B5A6
:104A2000446A06460D463CB91020FFF7A3FF7062AA
:104A3000C0E901440460C4603DB1736A6A68DB6820
:104A400053F82210296043F8225070BD2DE9F0413F
:104A50001F4606460C4600230D6901F1140CDCF8D4
:104A60000000013381B202FB0171000C0F0C02FB4C
:104A7000007089B201EB00419D424FEA10474CF8AB
:104A8000041BECDCD7B1A368AB4212DC6168304692
:104A90000131FFF790FF8046226904F10C010232D8
:104AA00092000C30FFF77CFF21463046FFF7B7FF3E
:104AB000444604EB850301355F6125612046BDE86E
:104AC000F081020C12040346B2B90304102013F063
:104AD0007F4F04BF1B02083013F0704F04BF1B014F
:104AE000043013F0404F04BF9B000230002B06DB64
:104AF0005B0003D5013070470020E8E720207047B5
:104B00000368014613F007020BD0DA0723D4980795
:104B100049BF5B089B0801200B605CBF0B60022053
:104B2000704798B2A8B910201B0C13F0FF0F04BFF8
:104B30001B0A08301A0704BF1B0904309A0704BF78
:104B40009B080230DA0702D45B0806D001300B6004
:104B500070471046E9E7002070472020704710B5E5
:104B60000C460121FFF727FF01224461026110BDBD
:104B70002DE9F74F14460A69236988469A42BEBF59
:104B80000B46A0461C46D8F81070D4F81090D8F800
:104B90000830D8F8041007EB0906B342B8BF01315A
:104BA000FFF709FF00F114052B46002205EB860EE6
:104BB000734516D304F1140208F1140102EB8903C2
:104BC00001EB87070093009B019293420CD8002EC3
:104BD00003DD5EF8043D002B5DD0066103B0BDE847
:104BE000F08F43F8042BE3E7B2F800B0BBF1000FFD
:104BF00023D08946AC464FF0000859F8044BDCF846
:104C000000A0A3B21FFA8AFA0BFB03A34FEA144ACF
:104C1000DCF8004043444FEA14480BFB0A84E246A8
:104C200004EB13449BB243EA04434F454FEA144854
:104C30004AF8043B2BD8CCF80480019B0432B3F82B
:104C400002A0BAF1000F20D08946A8464FF0000B11
:104C50002B68B9F800C0B8F802409BB20AFB0C44BC
:104C6000C4465C4443EA04434CF8043B59F8043B13
:104C7000B8F804B01B0C0AFB03B34F4503EB144315
:104C80004FEA134B05D8C8F8043004359BE7D446E7
:104C9000B3E7E046DDE7013E99E700002DE9F84380
:104CA000154612F0030206460F4607D0214C013A82
:104CB000002354F82220FFF7C9FE0746AD1035D077
:104CC000746A3CB91020FFF755FE7062C0E90144D8
:104CD0000460C460D6F82480D8F808404CB940F28B
:104CE00071213046FFF73BFF00230446C8F8080057
:104CF00003604FF00008EB070AD5394622463046DC
:104D0000FFF736FF814639463046FFF788FE4F46AB
:104D10006D100BD0206838B9224621463046FFF787
:104D200027FF2060C0F800800446E4E73846BDE86D
:104D3000F88300BF085600082DE9F0470C460746E7
:104D4000164623694FEA621A0AEB03094968A36809
:104D500009F10105AB4232DB3846FFF72CFE002398
:104D600080461A4600F1140153452BDB20692AEADC
:104D7000EA7A04F1140316F01F0201EB8A0103EB37
:104D8000800C25D00020C2F1200E8A461E68964075
:104D900030434AF8040B53F8040B9C4520FA0EF0FC
:104DA00014D8486008B109F10205013D3846C8F839
:104DB00010502146FFF733FE4046BDE8F087013131
:104DC0005B00C7E741F823200133CDE75146DCE71C
:104DD000043953F8042B9C4541F8042FF9D8E4E733
:104DE00003690A6930B59B1A0CD192001430143152
:104DF0008418114454F8045D51F8042D954203D0F1
:104E000005D30123184630BDA042F3D3FAE74FF093
:104E1000FF33F7E72DE9F0470D46074611462846D0
:104E20001446FFF7DDFF061E08D131463846FFF76E
:104E3000C2FD0123C0E90436BDE8F087A4BF2346C4
:104E40002C4638466168A6BF1D4600260126FFF79E
:104E5000B2FD4FF0000EC6602B69266904F1140202
:104E600005F1140902EB860709EB830800F1140130
:104E700052F804AB59F8045B1FFA8AF37344ACB2DE
:104E80001B1B2C0CC4EB1A4404EB23449BB24FEACB
:104E9000244EC84543EA0444944641F8044BE7D8FD
:104EA000BC4504D351F8043D83B10661C4E75CF806
:104EB000044BA2B27244131403EB144392B242EABD
:104EC00003424FEA234E41F8042BE9E7013EE9E7AC
:104ED0002DE9F3411C46DDE9086501219046FFF705
:104EE0006AFDC4F31302C4F30A54074634BB0192AB
:104EF000B8F1000227D002A840F8082DFFF700FE05
:104F00000099F0B1019AC0F1200302FA03F30B43B8
:104F1000C2407B610192019B002B14BF0221012141
:104F2000BB613961C4B1A4F2334404443460C0F1BC
:104F300035002860384602B0BDE8F08142F48012A6
:104F4000D5E77961E7E701A8FFF7DAFD0121019BC9
:104F500039617B612030E5E7A0F2324007EB810345
:104F600030601869FFF7ADFDC0EB4110E1E738B5DF
:104F700002FB01F4214600F055F8054618B122461F
:104F80000021FEF72FFA284638BD000038B5054647
:104F9000002943D051F8043C0C1F002BB8BFE41883
:104FA00000F027FA1E4A1368104633B96360146094
:104FB0002846BDE8384000F01DBAA3420BD921684D
:104FC0006218934201BF1A685B68521822606360DE
:104FD0000460EDE713465A680AB1A242FAD919688B
:104FE0005818A0420BD12068014458188242196019
:104FF000DED110685268014419605A60D8E702D9BE
:105000000C232B60D4E7206821188A4201BF116865
:1050100052680918216062605C60C9E738BD00BF52
:105020000802002070B5CD1C25F0030508350C2DB5
:1050300038BF0C25002D064601DBA94203D90C23FD
:105040003360002070BD00F0D4F9214A1468214675
:1050500091B9204C23681BB9304600F08FF92060CD
:105060002946304600F08AF9431C24D10C233046EF
:10507000336000F0BFF9E4E70B685B1B18D40B2B1F
:105080000FD90B60CC18CD50304600F0B3F904F1C5
:105090000B00231D20F00700C31AD3D05A42E25060
:1050A000D0E74B688C4216BF636013600C46EBE799
:1050B0000C464968CCE7C41C24F00304A04205D088
:1050C000211A304600F05AF90130CFD02560DBE7D5
:1050D000080200200C0200202DE9F0478E6882466D
:1050E0009E420C469046994637D88A8912F4906FB2
:1050F00031D00223256809696F1A656905EB4505FA
:1051000095FBF3F509F101033B449D4238BF1D4671
:10511000530530D52946FFF785FF064650B90C23C5
:105120004FF0FF30CAF80030A38943F04003A38159
:10513000BDE8F0873A462169FFF732FCA38923F4E2
:10514000906343F08003A38126613E4426604E466F
:105150006561ED1BA5604E4500D94E46324641467D
:10516000206800F02DF9A36800209B1BA360236832
:105170001E442660DCE72A4600F03DF9064600287A
:10518000E2D121695046FFF701FFC8E72DE9F04F52
:105190001D468B899DB01F0680460C4616460FD5CE
:1051A0000B696BB94021FFF73DFF2060206128B9F2
:1051B0000C23C8F800304FF0FF30C8E04023636193
:1051C0000023099320238DF8293030234FF0010B61
:1051D0008DF82A30039537463D4615F8013B0BB153
:1051E000252B3ED1B7EB060A0BD05346324621465B
:1051F0004046FFF771FF013000F0A480099B534443
:1052000009933B78002B00F09D8000234FF0FF3284
:10521000CDE90523049307938DF853301A932F4655
:10522000052217F8011B5048FFF7ACFB049BD0B9CF
:10523000D90644BF20228DF853201A0744BF2B22E1
:105240008DF853202A782A2A15D02F4600200A25C7
:10525000079A394611F8013B303B092B4DD9B8B1BB
:105260000FE02F46B8E7404A3D46801A0BFA00F09F
:1052700018430490D3E7039A111D12680391002A82
:1052800001DB079204E0524243F0020307920493C9
:105290003B782E2B0CD17B782A2B33D1039B023702
:1052A0001A1D1B680392002BB8BF4FF0FF33059304
:1052B0002E4D032239782846FFF764FB38B140238E
:1052C000401B03FA00F0049B013703430493397831
:1052D000062227487E1C8DF82810FFF753FB002874
:1052E00038D0244B13BB039B073323F00703083349
:1052F0000393099B4B4409936DE705FB02320120A0
:105300000F46A6E700230A251946013705933846BC
:1053100010F8012B303A092A03D9002BC8D0059187
:10532000C6E705FB012101230746F0E703AB009325
:105330002246114B04A94046FEF7EEF8B0F1FF3FBC
:105340008146D6D1A3895B063FF535AF09981DB0DC
:10535000BDE8F08F03AB00932246074B04A94046FB
:10536000FEF786FBEAE700BF145600081A5600084D
:105370001E56000819350008D950000838B500231A
:10538000054C054608462360FDF79EFE431C02D1EE
:10539000236803B12B6038BD9404002082B001B9AA
:1053A00001A942B14BB113780B601278101C18BFE1
:1053B000012002B070471046FBE76FF00100F8E7EC
:1053C000884210B501EB020307D8421E99420AD069
:1053D00011F8014B02F8014FF8E78342F5D9811823
:1053E000D21AD34200D110BD13F8014D01F8014D7E
:1053F000F7E770477047F8B5074614460E4621B9DF
:10540000BDE8F8401146FFF70DBE22B9FFF7BEFD1B
:1054100025462846F8BD00F021F8A0420FD22146CB
:105420003846FFF7FFFD05460028F2D031462246F8
:10543000FFF7B6FA31463846FFF7A8FDE9E73546EB
:10544000E7E749B1FF2A8BBF8A230A700360012076
:1054500088BF4FF0FF3070470846704751F8043C52
:10546000181F002BBCBF0B58C0187047F8B500BF01
:10547000F8BC08BC9E467047F8B500BFF8BC08BC35
:045480009E4670478D
:1054880002030405060708090A0B0C0D0E0F10107D
:10549800010200000000804500000000000000003C
:1054A80001020304060708090000000001020304C2
:1054B8004D4541535552454D454E54533B4C3D2562
:1054C8002E32663B0D0A0000494E4600696E6600A2
:1054D8004E414E006E616E0030003031323334354B
:1054E8003637383941424344454600303132333447
:1054F800353637383961626364656600496E6669B6
:105508006E697479004E614E0000000000000000D2
:105518000080E03779C34143176E05B5B5B89346A7
:10552800F5F93FE9034F384D321D30F94877825A73
:105538003CBF737FDD4F1575000000000000F03F91
:105548000000000000002440000000000000594056
:105558000000000000408F40000000000088C340A9
:1055680000000000006AF8400000000080842E411E
:1055780000000000D01263410000000084D797416A
:105588000000000065CDCD41000000205FA0024270
:10559800000000E876483742000000A2941A6D42E5
:1055A800000040E59C30A2420000901EC4BCD642D8
:1055B80000003426F56B0C430080E03779C3414383
:1055C80000A0D8855734764300C84E676DC1AB43F9
:1055D800003D9160E458E143408CB5781DAF154417
:1055E80050EFE2D6E41A4B4492D54D06CFF08044F2
:1055F800F64AE1C7022DB544B49DD9794378EA4407
:1056080005000000190000007D000000232D302B4C
:105618002000686C4C0065666745464700430050AB
:105628004F534958002E0000202020202020202001
:10563800202828282828202020202020202020203A
:10564800202020202020202088101010101010105A
:1056580010101010101010100404040404040404A2
:105668000404101010101010104141414141410133
:105678000101010101010101010101010101010112
:105688000101011010101010104242424242420221
:1056980002020202020202020202020202020202E2
:1056A800020202101010102000000000000000008C
:1056B80000000000000000000000000000000000E2
:1056C80000000000000000000000000000000000D2
:1056D80000000000000000000000000000000000C2
:1056E80000000000000000000000000000000000B2
:1056F80000000000000000000000000000000000A2
:105708000000000000000000000000000000000091
:105718000000000000000000000000000000000081
:08572800000000000000000079
:045730003501000837
:045734001101000857
:1057380001000000100000000024F4001000002008
:105748000000000000000000000000000000000051
:105758000000000000000000000000000000000041
:105768000000000000000000000000000000000031
:105778000000000000000000000000000000000021
:105788000000000000000000000000000000000011
:105798000000000000000000000000000000000001
:1057A80043000000000000000000000000000000AE
:1057B80000000000000000000000000000000000E1
:1057C800430000000000000000000000000000008E
:1057D80000000000000000000000000000000000C1
:1057E800430000000000000000000000000000006E
:1057F80000000000000000000000000000000000A1
:10580800430000000000000000000000000000004D
:105818000000000000000000000000000000000080
:10582800430000000000000000000000000000002D
:105838000000000000000000000000000000000060
:10584800430000000000000000000000000000000D
:105858000000000000000000000000000000000040
:1058680043000000000000000000000000000000ED
:105878000000000000000000000000000000000020
:10588800435400089D530008000000002F560008EC
:105898002D56000819560008195600081956000810
:1058A8001956000819560008195600081956000814
:1058B8001956000819560008FFFFFFFFFFFFFFFFFA
:1058C800FFFFFFFFFFFF000001004153434949006C
:1058D80000000000000000000000000000000000C0
:1058E8000000000000000000000041534349490047
:1058F80000000000000000000000000000000000A0
:0C59080000000000000000000000000093
:040000050800334577
:00000001FF
